:0801D40002180000021A0000ED
:10017900AE071FEE6015E4FCFDC3ED9428EC648026
:0B018900948050EC0DBD00010C80EED6
:010194002248
:0901CB0075B0FF75A0FFC290227F
:08000300758901D2A9C28C220B
:0801DD00758910D2ABC28E221D
:10015B001201CB1200031201DDD2AFD2BBE5B0F41A
:0E016B0060FB85B01CE5B0B4FFFBD28E80EFC8
:03001B0002010DD2
:10010D00C0E0C0F0C083C082C0D075D010758CFF28
:10011D00758A9CE51C2411602324F8601A24FC6068
:10012D001124FE600814701412000E80121201A426
:10013D00800D12019580081201B180031201BED20B
:0E014D008CC28ED0D0D082D083D0F0D0E032E1
:03000B000200AA46
:1000AA00C0E0C0D0758CFF758A9CC3E51994C8E579
:1000BA001894004006751800751900C3E519950BC8
:1000CA00E518950A5004D2A08002C2A00519E519C4
:1000DA0070020518C3E51B94C8E51A94004006751A
:1000EA001A00751B00C3E51B9509E51A950850040B
:1000FA00D2A18002C2A1051BE51B7002051AD0D04D
:03010A00D0E03210
:0D000E00750A00750B327508007509322265
:0D01A400750A00750B3275080075093222CE
:0F019500B290750A00750BC87508007509322203
:0D01B100750A00750B327508007509C8222B
:0D01BE00750A00750BC87508007509C82288
:0300000002001EDD
:0C001E00787FE4F6D8FD758120020065B3
:10002A0002015BE493A3F8E493A34003F68001F290
:10003A0008DFF48029E493A3F85407240CC8C333D7
:10004A00C4540F4420C8834004F456800146F6DFA6
:10005A00E4800B01020408102040809001D4E47E61
:10006A00019360BCA3FF543F30E509541FFEE4939B
:10007A00A360010ECF54C025E060A840B8E493A362
:10008A00FAE493A3F8E493A3C8C582C8CAC583CA8D
:10009A00F0A3C8C582C8CAC583CADFE9DEE780BE45
:0101DC000022
:00000001FF
